:0F026B004C56204C4F5645205955003D2D330021
:100097001202577B417D017F0112029F7BFF7A028B
:1000A700796B7D037F011201E3750C037B7B7A007B
:1000B7007D0E7F01120224750C017B027A007D01FF
:1000C7007F02120224750C017BFB7AFF7D027F02FF
:1000D7001201057BFF7A0279767D047F021201E324
:1000E700750C027BFF7A007D087F0212013F750CB9
:0E00F700067B0C7A007D0B7F0212017880FEE2
:06027A00C2A58F80D2A78F
:080280007F027EEFDEFEDFFCD1
:010288002253
:0A029500C2A612027AC2A70202807C
:10020600CFCDCFCECCCE1200427C007D0A1200426A
:04021600ED2430FFA4
:0A021A00D2A612027AC2A7020280E7
:10024100AE07BE0104ED148006BE0209ED243F4451
:0602510080FF120295225D
:100257007F381202957F0C1202957F061202957F56
:0402670001020295F9
:0A029F00AC03120241AF0402021A80
:0601E3008B088A09890A5D
:1001E900120241E4FDAB08AA09A90A8D82758300B0
:0C01F900120003FF600612021A0D80E9DC
:0102050022D6
:0C01B0007F0AEA24FFFDE434FFFC7E001F
:0801BC008E0F8F108C118D12C3
:1001C4007F017E00E4FBEBC39512E5116480F874B3
:0E01D4008098500AAC0FAD101200300B80E87E
:0101E20022FA
:040224008A0A8B0BAC
:10022800120241AA0CEAD39400400D1201B0AC0AA4
:08023800AD0B1202061A80ED65
:01024000229B
:10010500120241C3EA64809480400B7F2B12021ACD
:100115008A0D8B0E800E7F2D12021AC3E49BF50EFD
:10012500E49AF50DAA0CEAD39400400D1201B0AC87
:090135000DAD0E1202061A80ED58
:01013E00229E
:04013F008A0A8B0B92
:10014300120241AA0CEAD3940040297F101201B293
:10015300AC0AAD0BCFCDCFCECCCE120042EF540FB5
:10016300FEC3940AEE5004243080022437FF1202A7
:040173001A1A80D103
:010177002265
:040178008A0A8B0B59
:10017C00120241AA0CEAD394004028EA24FFFDE4C1
:10018C0034FFFC7F027E001201BCAC0AAD0BCFCD5C
:10019C00CFCECCCE120042EF54012430FF12021A03
:0301AC001A80D2E4
:0101AF00222D
:0300000002028970
:0C028900787FE4F6D8FD75811202009722
:10000300BB010CE58229F582E5833AF583E02250B2
:1000130006E92582F8E622BBFE06E92582F8E222FC
:0D002300E58229F582E5833AF583E4932216
:10003000EF8DF0A4A8F0CF8CF0A428CE8DF0A42EE4
:02004000FE229E
:10004200BC000BBE0029EF8DF084FFADF022E4CCA2
:10005200F875F008EF2FFFEE33FEEC33FCEE9DEC6B
:10006200984005FCEE9DFE0FD5F0E9E4CEFD22EDB1
:10007200F8F5F0EE8420D21CFEADF075F008EF2FFB
:10008200FFED33FD4007985006D5F0F222C398FDEC
:050092000FD5F0EA2289
:00000001FF
