:0402EE0002250000E5
:100201001202A3E526640F45257004F525F5267530
:100211000C03AB26AA257D017F011201230526E5EA
:0E02210026700205257F847E031202B780D569
:0602CB00C2A58F80D2A73E
:0802D1007F027EEFDEFEDFFC80
:0102D9002202
:0A02DA00C2A61202CBC2A70202D195
:10025200CFCDCFCECCCE1200427C007D0A1200421E
:04026200ED2430FF58
:0A026600D2A61202CBC2A70202D1F9
:10028D00AE07BE0104ED148006BE0209ED243F4405
:06029D0080FF1202DA22CC
:1002A3007F381202DA7F0C1202DA7F061202DA7F3B
:0402B300010202DA68
:0A02E400AC0312028DAF04020266A3
:06022F008B228A238924C2
:1002350012028DE4FDAB22AA23A9248D82758300C9
:0C024500120003FF60061202660D80E943
:01025100228A
:0C01CE007F0AEA24FFFDE434FFFC7E0001
:0801DA008E0F8F108C118D12A5
:1001E2007F017E00E4FBEBC39512E5116480F87495
:0E01F2008098500AAC0FAD101200300B80E860
:0102000022DB
:040270008A158B164A
:1002740012028DAA17EAD39400400D1201CEAC15D8
:08028400AD161202521A80EDC2
:01028C00224F
:1001230012028DC3EA64809480400B7F2B12026617
:100133008A0D8B0E800E7F2D120266C3E49BF50E93
:10014300E49AF50DAA0CEAD39400400D1201CEAC4B
:090153000DAD0E1202521A80EDEE
:01015C002280
:04015D008A1A8B1B54
:1001610012028DAA1CEAD3940040297F101201D0FB
:10017100AC1AAD1BCFCDCFCECCCE120042EF540F77
:10018100FEC3940AEE5004243080022437FF120289
:04019100661A80D199
:010195002247
:040196008A1F8B2011
:10019A0012028DAA21EAD394004028EA24FFFDE442
:1001AA0034FFFC7F027E001201DAAC1FAD20CFCDF6
:1001BA00CFCECCCE120042EF54012430FF12026699
:0301CA001A80D2C6
:0101CD00220F
:1002B700EF4E600F7D027CEFDCFEDDFCEF1F70F080
:0302C7001E80EDA9
:0102CA002211
:0300000002009764
:0C009700787FE4F6D8FD7581260200DEBB
:10000300BB010CE58229F582E5833AF583E02250B2
:1000130006E92582F8E622BBFE06E92582F8E222FC
:0D002300E58229F582E5833AF583E4932216
:10003000EF8DF0A4A8F0CF8CF0A428CE8DF0A42EE4
:02004000FE229E
:10004200BC000BBE0029EF8DF084FFADF022E4CCA2
:10005200F875F008EF2FFFEE33FEEC33FCEE9DEC6B
:10006200984005FCEE9DFE0FD5F0E9E4CEFD22EDB1
:10007200F8F5F0EE8420D21CFEADF075F008EF2FFB
:10008200FFED33FD4007985006D5F0F222C398FDEC
:050092000FD5F0EA2289
:1000A300020201E493A3F8E493A34003F68001F270
:1000B30008DFF48029E493A3F85407240CC8C3335E
:1000C300C4540F4420C8834004F456800146F6DF2D
:1000D300E4800B01020408102040809002EEE47ECD
:1000E300019360BCA3FF543F30E509541FFEE49322
:1000F300A360010ECF54C025E060A840B8E493A3E9
:10010300FAE493A3F8E493A3C8C582C8CAC583CA13
:10011300F0A3C8C582C8CAC583CADFE9DEE780BECB
:0102F200000B
:00000001FF
