:10008F007D017C007F011201127F017E001201753C
:10009F007D027C007F021201127F017E001201752A
:1000AF007D037C007F031201127F017E0012017518
:1000BF007D047C007F041201127F017E0012017506
:1000CF007D057C007F051201127F017E00120175F4
:1000DF007D067C007F061201127F017E00120175E2
:1000EF007D077C007F071201127F017E00120175D0
:1000FF007D087C007F081201127F017E00120175BE
:03010F0002008F5C
:10017500EF4E600F7D027CEFDCFEDDFCEF1F70F0C3
:030185001E80EDEC
:010188002254
:0C0189000A083F065B4F666D7D077F6F24
:10011200EF14B40800505490012775F003A4C5836E
:1001220025F0C5837302013F020143020147020128
:100132004B02014F02015702015F020167D2A48004
:100142000ED2A48012D2A48016D2A4801AC2A4D243
:10015200A3D2A28016C2A4D2A3C2A2800EC2A4C2FB
:10016200A3D2A28006C2A4C2A3C2A274082DF8E63A
:03017200F58022F3
:03000000020003F8
:0C000300787FE4F6D8FD75811102004AF8
:10000F0002008FE493A3F8E493A34003F68001F278
:10001F0008DFF48029E493A3F85407240CC8C333F2
:10002F00C4540F4420C8834004F456800146F6DFC1
:10003F00E4800B0102040810204080900189E47EC7
:10004F00019360BCA3FF543F30E509541FFEE493B6
:10005F00A360010ECF54C025E060A840B8E493A37D
:10006F00FAE493A3F8E493A3C8C582C8CAC583CAA8
:10007F00F0A3C8C582C8CAC583CADFE9DEE780BE60
:010195000069
:00000001FF
